:100000000C9462000C948A000C948A000C948A0070
:100010000C948A000C948A000C948A000C948A0038
:100020000C948A000C948A000C948A000C948A0028
:100030000C948A000C948A000C948A000C948A0018
:100040000C9451040C948A000C941F040C94F90332
:100050000C948A000C948A000C948A000C948A00F8
:100060000C948A000C948A000000000024002700F1
:100070002A000000000023002600290000000000E4
:10008000250028002B0004040404040404040202D4
:100090000202020203030303030301020408102007
:1000A0004080010204081020010204081020000012
:1000B0000008000201000003040700000000000027
:1000C0000000670611241FBECFEFD8E0DEBFCDBF12
:1000D00022E0AAE7B1E001C01D92A432B207E1F725
:1000E00011E0A0E0B1E0EEEBF6E102C005900D9268
:1000F000AA37B107D9F710E0C2E6D0E004C02197D3
:10010000FE010E946509C136D107C9F70E949B0410
:100110000C945D0B0C940000AF92BF92CF92DF92D3
:10012000EF92FF920F931F93CF93DF936C017B01AC
:100130008B01040F151FEB015E01AE18BF08C0173D
:10014000D10759F06991D601ED91FC910190F081B0
:10015000E02DC6010995892B79F7C501DF91CF9173
:100160001F910F91FF90EF90DF90CF90BF90AF90D5
:100170000895FC01538D448D252F30E0842F90E0AD
:10018000821B930B541710F0CF9608950197089592
:10019000FC01918D828D981761F0A28DAE0FBF2F5B
:1001A000B11D5D968C91928D9F5F9F73928F90E0B1
:1001B00008958FEF9FEF08952FB7F89480917F01F6
:1001C00090918001A0918101B09182012FBF809315
:1001D0008B0190938C01A0938D01B0938E0183E8E5
:1001E00091E00E94C80097FF26C02FB7F894809135
:1001F0007F0190918001A0918101B09182012FBF78
:1002000040918B0150918C0160918D0170918E0114
:10021000841B950BA60BB70B409187015091880169
:100220006091890170918A0184179507A607B70725
:10023000B0F28FEF9FEF0895FC01918D828D98179A
:1002400031F0828DE80FF11D858D90E008958FEFDC
:100250009FEF0895FC01918D228D892F90E0805CA5
:100260009F4F821B91098F739927089583E891E02E
:100270000E942A0121E0892B09F420E0822F0895B1
:1002800080E090E0892B29F00E94360181110C94C6
:1002900000000895FC01A48DA80FB92FB11DA35A29
:1002A000BF4F2C91848D90E001968F739927848F96
:1002B000A689B7892C93A089B1898C9183708064B9
:1002C0008C93938D848D981306C00288F389E02D5A
:1002D00080818F7D80830895EF92FF920F931F930B
:1002E000CF93DF93EC0181E0888F9B8D8C8D9813E9
:1002F0001AC0E889F989808185FF15C09FB7F894F5
:10030000EE89FF896083E889F98980818370806440
:1003100080839FBF81E090E0DF91CF911F910F918B
:10032000FF90EF900895F62E0B8D10E00F5F1F4F9A
:100330000F731127E02E8C8D8E110CC00FB607FCA9
:10034000FACFE889F989808185FFF5CFCE010E9437
:100350004A01F1CFEB8DEC0FFD2FF11DE35AFF4F5A
:10036000F0829FB7F8940B8FEA89FB8980818062C5
:10037000CFCFCF93DF93EC01888D8823B9F0AA8982
:10038000BB89E889F9898C9185FD03C0808186FD50
:100390000DC00FB607FCF7CF8C9185FFF2CF80819F
:1003A00085FFEDCFCE010E944A01E9CFDF91CF91C9
:1003B0000895833081F028F4813099F08230A9F0DB
:1003C00008958730A9F08830C9F08430B1F4809165
:1003D00080008F7D03C0809180008F7780938000A4
:1003E000089584B58F7784BD089584B58F7DFBCF44
:1003F0008091B0008F778093B00008958091B00015
:100400008F7DF9CF1F93CF93DF93EAEBF0E09491C8
:10041000E6EAF0E0D491E2E9F0E0C491CC23B9F04F
:10042000182F992319F0892F0E94D901EC2FF0E0A1
:10043000EE0FFF1FE458FF4FA591B4918FB7F894CA
:10044000EC91111108C0D095DE23DC938FBFDF91B2
:10045000CF911F910895DE2BF8CF8E50806480934A
:100460007C0080917A00806480937A0080917A0089
:1004700086FDFCCF809178009091790008953FB778
:10048000F89480917B0190917C01A0917D01B091C5
:100490007E0126B5A89B05C02F3F19F00196A11D2E
:1004A000B11D3FBFBA2FA92F982F8827BC01CD01BE
:1004B000620F711D811D911D42E0660F771F881F1D
:1004C000991F4A95D1F708958F929F92AF92BF924C
:1004D000CF92DF92EF92FF924B015C010E943F02AC
:1004E0006B017C010E943F026C197D098E099F09F6
:1004F000683E734081059105A8F321E0821A9108B6
:10050000A108B10888EEC80E83E0D81EE11CF11CDA
:1005100081149104A104B10429F7FF90EF90DF90BA
:10052000CF90BF90AF909F908F900895FC01019065
:100530000020E9F73197AF01481B590BBC0183E854
:1005400091E00C948C008F929F92AF92BF920F9388
:100550001F93CF93DF93CDB7DEB7A1970FB6F89473
:10056000DEBF0FBECDBF19A2423008F44AE08E01B3
:100570000F5D1F4F842E912CB12CA12CA50194014D
:100580000E944309E62FB901CA01EA30F4F4E05DA4
:10059000D801EE938D01232B242B252B79F790E0A6
:1005A00080E0109719F0CD010E949602A1960FB637
:1005B000F894DEBF0FBECDBFDF91CF911F910F9199
:1005C000BF90AF909F908F900895E95CE1CFCF935B
:1005D000DF930E949602EC0188E191E00E9496026E
:1005E0008C0F9D1FDF91CF9108954F925F926F9274
:1005F0007F928F929F92AF92BF92CF92DF92EF92B3
:10060000FF920F931F93CF936B017C01742EAC016B
:100610009B010E943E09882399F08BE191E0CF91E4
:100620001F910F91FF90EF90DF90CF90BF90AF9010
:100630009F908F907F906F905F904F900C94960258
:1006400046015701E894B7F82FEF3FEF4FE75FE718
:10065000C501B4010E943E0981110DC02FEF3FEF8B
:100660004FE75FE7C501B4010E94D00618161CF4DD
:100670008FE191E0D4CF2FEF3FEF4FE75FE4C70169
:10068000B6010E94390918161CF483E291E0C7CF25
:100690002FEF3FEF4FE75FECC701B6010E94D00696
:1006A00087FDF3CF20E030E0A901C701B6010E9429
:1006B000D00610E000E087FF0AC06DE283E891E019
:1006C0000E946C018C01F7FAF094F7F8F094C0E006
:1006D00060E070E080E09FE37C1641F020E030E0D5
:1006E00040E251E40E949808CF5FF6CFA70196013F
:1006F0000E942C082B013C010E940A094B015C015D
:100700004AE00E94A3027C01E00EF11ECC23C1F15D
:10071000C501B4010E94D5069B01AC01C301B20121
:100720000E942B084B015C016EE283E891E00E947D
:100730006C01E80EF91EC15018F120E030E040E2F3
:1007400051E4C501B4010E9436072B013C010E940F
:100750000A094B01B12CA12C4AE0C501B4010E9449
:10076000A302E80EF91EC501B4010E94D5069B0143
:10077000AC01C301B2010E942B084B015C01DBCF2D
:10078000C701CF911F910F91FF90EF90DF90CF9015
:10079000BF90AF909F908F907F906F905F904F90A1
:1007A00008950F931F93CF93DF93EC018881998174
:1007B000009759F02A813B812617370730F081E0F6
:1007C000DF91CF911F910F9108958B016F5F7F4F44
:1007D0000E94900A009759F0998388831B830A83AB
:1007E0002C813D81232B59F7FC011082E8CF80E05A
:1007F000E7CF1F920F920FB60F9211242F933F93C2
:100800004F935F936F937F938F939F93AF93BF9318
:10081000EF93FF9383E891E00E944A01FF91EF91EB
:10082000BF91AF919F918F917F916F915F914F9108
:100830003F912F910F900FBE0F901F9018951F9210
:100840000F920FB60F9211242F938F939F93EF93D4
:10085000FF93E0919301F09194018081E0919901DF
:10086000F0919A0182FD1BC0908180919C018F5F65
:100870008F7320919D01821741F0E0919C01F0E07F
:10088000ED57FE4F958F80939C01FF91EF919F91C3
:100890008F912F910F900FBE0F901F901895808110
:1008A000F4CF1F920F920FB60F9211242F933F9304
:1008B0008F939F93AF93BF9380917F01909180011D
:1008C000A0918101B091820130917A0123E0230F40
:1008D0002D3758F50196A11DB11D20937A01809303
:1008E0007F0190938001A0938101B0938201809158
:1008F0007B0190917C01A0917D01B0917E010196D8
:10090000A11DB11D80937B0190937C01A0937D017B
:10091000B0937E01BF91AF919F918F913F912F91A5
:100920000F900FBE0F901F90189526E8230F029688
:10093000A11DB11DD2CFCF93DF93CDB7DEB72897DE
:100940000FB6F894DEBF0FBECDBF789484B5826039
:1009500084BD84B5816084BD85B5826085BD85B563
:10096000816085BD80916E00816080936E001092E1
:10097000810080918100826080938100809181005C
:1009800081608093810080918000816080938000ED
:100990008091B10084608093B1008091B00081604B
:1009A0008093B00080917A00846080937A00809177
:1009B0007A00826080937A0080917A0081608093CF
:1009C0007A0080917A00806880937A001092C1004A
:1009D000E6EAF0E02491E2E9F0E08491882399F0DE
:1009E00090E0880F991FFC01E859FF4FA591B49141
:1009F000FC01E458FF4F859194918FB7F894EC91E6
:100A0000E22BEC938FBF42EAC42E40E0D42EF601D5
:100A100024915EE8A52E50E0B52EF501849188233F
:100A2000C9F090E0880F991FFC01E859FF4FA5918C
:100A3000B491FC01E458FF4F459154913FB7F894AD
:100A40009C91822F809598239C93FA019081892311
:100A500080833FBFE0919301F091940182E0808315
:100A6000E0918F01F09190011082E0919101F0915D
:100A700092018FEC808310929B01E0919701F0919D
:100A8000980186E08083E0919501F0919601808144
:100A900080618083E0919501F0919601808188606A
:100AA0008083E0919501F091960180818068808338
:100AB000E0919501F091960180818F7D808396EB86
:100AC000692E90E0792E20E0822E20E0922E83E89D
:100AD00091E00E942A01892B09F491C01A8219829F
:100AE0001C821B821E821D8270E060E0CE01019696
:100AF0000E94D10329813A8181112BC02115310532
:100B000019F0C9010E94070A1A8219821E821D82E9
:100B10001C821B820E94DC0097FD23C08F831886F5
:100B20000D811E810F5F1F4FB801CE0101960E94FB
:100B3000D103882379F329813A818D819E81BE0179
:100B4000695F7F4F820F931F0E94560B1E830D8398
:100B5000E1CF1E821D826AE171E0C9010E94560B3D
:100B6000D9CFE980FA8060E070E0CB01E114F104B4
:100B700019F0C7010E9494068B01E114F10419F0E9
:100B8000C7010E94070A87E291E00E9496021801BD
:100B9000012E000C440855084AE0C201B10157FE7D
:100BA0000DC06DE283E891E00E946C016627772713
:100BB000CB0162197309840995094AE00E94A302D6
:100BC0008BE391E00E94E702F12CE12CE016F106A4
:100BD000B4F481E00E9402026AEF70E080E090E0ED
:100BE0000E94640280E00E9402026AEF70E080E0EE
:100BF00090E00E946402FFEFEF1AFF0AE7CFF301D3
:100C00008491F6011491F5010491002379F081118A
:100C10000E94D901E02FF0E0EE0FFF1FEE58FF4FCA
:100C2000A591B4918C91182380E009F481E00E9491
:100C300002028EE00E942D028C0183E491E00E946A
:100C40009602B801110F880B990B0E94D70620E07D
:100C500030E04CE453E40E94980842E00E94F50220
:100C600082E691E00E94E70264EF71E080E090E0AC
:100C70000E94640283E10E942D028C0185E691E0CE
:100C80000E949602B801110F880B990B0E94D7069B
:100C900020E030E04CE453E40E94980842E00E94D7
:100CA000F50282E691E00E94E70264EF71E080E0E5
:100CB00090E00E9464028114910409F408CF0E941C
:100CC0003601882309F403CF0E94000000CFE3E837
:100CD000F1E01382128288EE93E0A0E0B0E084831A
:100CE0009583A683B7838AE091E09183808385EC26
:100CF00090E09587848784EC90E09787868780ECE6
:100D000090E0918B808B81EC90E0938B828B82ECD6
:100D100090E0958B848B86EC90E0978B868B118E80
:100D2000128E138E148E08951F93FC019927882725
:100D3000BC01E89411911032E9F3193010F01E3023
:100D4000C8F31B3251F01D3249F4689406C00E946A
:100D5000BB06610F711D811D911D119110531A3039
:100D6000B0F33EF490958095709561957F4F8F4FCD
:100D70009F4F1F910895592F482F372F262F660F09
:100D8000771F881F991F660F771F881F991F620F93
:100D9000731F841F951F660F771F881F991F089563
:100DA0000E94120708F481E00895E89409C097FBB7
:100DB0003EF490958095709561957F4F8F4F9F4F32
:100DC0009923A9F0F92F96E9BB279395F695879576
:100DD00077956795B795F111F8CFFAF4BB0F11F439
:100DE00060FF1BC06F5F7F4F8F4F9F4F16C08823E0
:100DF00011F096E911C0772321F09EE8872F762F16
:100E000005C0662371F096E8862F70E060E02AF056
:100E10009A95660F771F881FDAF7880F9695879542
:100E200097F90895990F0008550FAA0BE0E8FEEF17
:100E300016161706E807F907C0F012161306E4079E
:100E4000F50798F0621B730B840B950B39F40A2697
:100E500061F0232B242B252B21F408950A2609F475
:100E6000A140A6958FEF811D811D08950E9449071D
:100E70000C94BA070E94AC0738F00E94B30720F028
:100E8000952311F00C94A3070C94A90711240C943A
:100E9000EE070E94CB0770F3959FC1F3950F50E0CA
:100EA000551F629FF001729FBB27F00DB11D639F1C
:100EB000AA27F00DB11DAA1F649F6627B00DA11DC2
:100EC000661F829F2227B00DA11D621F739FB00D68
:100ED000A11D621F839FA00D611D221F749F3327D8
:100EE000A00D611D231F849F600D211D822F762F71
:100EF0006A2F11249F5750409AF0F1F088234AF04E
:100F0000EE0FFF1FBB1F661F771F881F91505040B9
:100F1000A9F79E3F510580F00C94A3070C94EE07AF
:100F20005F3FE4F3983ED4F3869577956795B79540
:100F3000F795E7959F5FC1F7FE2B880F911D96955A
:100F4000879597F9089597F99F6780E870E060E0CA
:100F500008959FEF80EC089500240A941616170652
:100F600018060906089500240A941216130614069A
:100F700005060895092E0394000C11F4882352F0FD
:100F8000BB0F40F4BF2B11F460FF04C06F5F7F4FB5
:100F90008F4F9F4F089557FD9058440F551F59F09C
:100FA0005F3F71F04795880F97FB991F61F09F3F56
:100FB00079F087950895121613061406551FF2CF7F
:100FC0004695F1DF08C0161617061806991FF1CFCF
:100FD00086957105610508940895E894BB276627F6
:100FE0007727CB0197F908952F923F924F925F9206
:100FF0006F927F928F929F92AF92BF92CF92DF9229
:10100000EF92FF920F931F93CF93DF93CDB7DEB78D
:10101000CA1BDB0B0FB6F894DEBF0FBECDBF099421
:101020002A88398848885F846E847D848C849B8478
:10103000AA84B984C884DF80EE80FD800C811B8186
:10104000AA81B981CE0FD11D0FB6F894DEBF0FBEB5
:10105000CDBFED0108955058BB27AA270E94430831
:101060000C94BA070E94AC0738F00E94B30720F036
:1010700039F49F3F19F426F40C94A9070EF4E09577
:10108000E7FB0C94A307E92F0E94CB0758F3BA178C
:10109000620773078407950720F079F4A6F50C948E
:1010A000ED070EF4E0950B2EBA2FA02D0B01B90120
:1010B00090010C01CA01A0011124FF27591B99F0CE
:1010C000593F50F4503E68F11A16F040A22F232FDA
:1010D000342F4427585FF3CF469537952795A7952A
:1010E000F0405395C9F77EF41F16BA0B620B730BD1
:1010F000840BBAF09150A1F0FF0FBB1F661F771F42
:10110000881FC2F70EC0BA0F621F731F841F48F4F6
:10111000879577956795B795F7959E3F08F0B0CF7F
:101120009395880F08F09927EE0F97958795089566
:101130000E94AC080C94BA070E94B30758F00E94B2
:10114000AC0740F029F45F3F29F00C94A30751113C
:101150000C94EE070C94A9070E94CB0768F399231F
:10116000B1F3552391F3951B550BBB27AA276217A3
:101170007307840738F09F5F5F4F220F331F441FB0
:10118000AA1FA9F335D00E2E3AF0E0E832D09150E4
:101190005040E695001CCAF72BD0FE2F29D0660FD1
:1011A000771F881FBB1F261737074807AB07B0E814
:1011B00009F0BB0B802DBF01FF2793585F4F3AF01A
:1011C0009E3F510578F00C94A3070C94EE075F3F07
:1011D000E4F3983ED4F3869577956795B795F795A0
:1011E0009F5FC9F7880F911D9695879597F9089588
:1011F000E1E0660F771F881FBB1F62177307840724
:10120000BA0720F0621B730B840BBA0BEE1F88F732
:10121000E09508950E94D30788F09F5798F0B92F62
:101220009927B751B0F0E1F0660F771F881F991F1B
:101230001AF0BA95C9F714C0B13091F00E94ED07C9
:10124000B1E008950C94ED07672F782F8827B85FD9
:1012500039F0B93FCCF3869577956795B395D9F773
:101260003EF490958095709561957F4F8F4F9F4F7D
:1012700008950E94120708F48FEF08950E94120744
:10128000880B990B0895A1E21A2EAA1BBB1BFD0126
:101290000DC0AA1FBB1FEE1FFF1FA217B307E40755
:1012A000F50720F0A21BB30BE40BF50B661F771FAD
:1012B000881F991F1A9469F760957095809590958D
:1012C0009B01AC01BD01CF010895EE0FFF1F0590FA
:1012D000F491E02D09940F931F93CF93DF93823005
:1012E000910510F482E090E0E0912202F091230257
:1012F00030E020E0B0E0A0E0309799F4211531050E
:1013000009F44AC0281B390B24303105D8F58A81ED
:101310009B816115710589F1FB0193838283FE0135
:1013200011C0408151810281138148175907E0F0B3
:101330004817590799F4109761F012960C93129779
:1013400013961C933296CF01DF91CF911F910F918D
:1013500008950093220210932302F4CF2115310542
:1013600051F04217530738F0A901DB019A01BD0182
:10137000DF01F801C1CFEF01F9CF909323028093F1
:101380002202CDCFFE01E20FF31F819391932250F1
:10139000310939832883D7CF20912002309121024F
:1013A000232B41F42091020130910301309321025B
:1013B0002093200220910001309101012115310577
:1013C00041F42DB73EB74091040150910501241B13
:1013D000350BE0912002F0912102E217F307A0F40F
:1013E0002E1B3F0B2817390778F0AC014E5F5F4F7B
:1013F0002417350748F04E0F5F1F5093210240938A
:101400002002819391939FCFF0E0E0E09CCFCF93B7
:10141000DF930097E9F0FC01329713821282A091CA
:101420002202B0912302ED0130E020E01097A1F4F8
:1014300020813181820F931F20912002309121025F
:101440002817390709F061C0F0932102E0932002C8
:10145000DF91CF910895EA01CE17DF07E8F54A81C1
:101460005B819E0141155105B1F7E901FB83EA83D8
:1014700049915991C40FD51FEC17FD0761F4808184
:1014800091810296840F951FE90199838883828157
:1014900093819B838A83F0E0E0E012968D919C918A
:1014A00013970097B9F52D913C911197CD010296B4
:1014B000820F931F209120023091210228173907B3
:1014C00039F6309751F51092230210922202B09310
:1014D0002102A0932002BCCFD383C28340815181DB
:1014E000840F951FC817D90761F44E5F5F4F88813D
:1014F0009981480F591F518340838A819B8193832F
:1015000082832115310509F0B0CFF0932302E093D7
:1015100022029ECFFD01DC01C0CF13821282D7CF01
:10152000B0E0A0E0E6E9FAE00C94F6078C01009741
:1015300051F4CB010E946B098C01C801CDB7DEB715
:10154000E0E10C941208FC01E60FF71F9C01225009
:101550003109E217F30708F49DC0D901CD91DC9160
:101560001197C617D70798F0C530D10530F3CE01D3
:1015700004978617970708F3C61BD70B2297C193CA
:10158000D1936D937C93CF010E94070AD6CF5B0164
:10159000AC1ABD0A4C018C0E9D1EA0912202B09186
:1015A0002302512C412CF12CE12C109731F5809124
:1015B0002002909121028815990509F05CC0461619
:1015C000570608F058C080910001909101010097E2
:1015D00041F48DB79EB74091040150910501841BE1
:1015E000950BE817F90708F055C0F0932102E09336
:1015F0002002F90171836083A0CF8D919C91119796
:1016000012966C90129713967C901397A815B905B3
:1016100059F56C0142E0C40ED11CCA14DB0420F160
:10162000AC014A195B09DA011296159780F06282C3
:10163000738251834083D9016D937C93E114F1044B
:1016400071F0D7011396FC93EE93129776CF229602
:101650008C0F9D1FF90191838083F301EFCFF093ED
:101660002302E093220269CF4816590608F42C01A0
:101670007D01D3019ACFCB010E946B097C010097B9
:1016800049F0AE01B8010E944D0BC8010E94070A43
:10169000870153CF10E000E050CFFB01DC0102C016
:1016A00001900D9241505040D8F70895FB01DC01A4
:0E16B00001900D920020E1F70895F894FFCF0D
:1016BE00000024028000000000006C018C00B900C4
:1016CE00B9012A01C8001C010D0A006E616E006985
:1016DE006E66006F766600546865206C65642077D0
:1016EE00696C6C20626C696E6B20002074696D658C
:1016FE00732E00506F74656E74696F6D65746572CC
:10170E0020726561642028616E616C6F6729203AD2
:10171E0020002056004C44522072656164202861DE
:0A172E006E616C6F6729203A2000FD
:00000001FF
