:100000000C9435000C945D000C945D000C945D0024
:100010000C945D000C945D000C945D000C945D00EC
:100020000C945D000C945D000C945D000C945D00DC
:100030000C945D000C945D000C945D000C945D00CC
:100040000C94C3020C945D000C9491020C946B020E
:100050000C945D000C945D000C945D000C945D00AC
:100060000C945D000C945D00550411241FBECFEF6D
:10007000D8E0DEBFCDBF21E0A2E5B1E001C01D9216
:10008000AC3FB207E1F711E0A0E0B1E0E2E2FEE050
:1000900002C005900D92A235B107D9F710E0C5E373
:1000A000D0E004C02197FE010E941705C433D10798
:1000B000C9F70E940D030C940F070C940000AF9237
:1000C000BF92CF92DF92EF92FF920F931F93CF9345
:1000D000DF936C017B018B01040F151FEB015E01A7
:1000E000AE18BF08C017D10759F06991D601ED913C
:1000F000FC910190F081E02DC6010995892B79F7DB
:10010000C501DF91CF911F910F91FF90EF90DF908C
:10011000CF90BF90AF900895FC01538D448D252F53
:1001200030E0842F90E0821B930B541710F0CF9691
:10013000089501970895FC01918D828D981761F0C3
:10014000A28DAE0FBF2FB11D5D968C91928D9F5FDA
:100150009F73928F90E008958FEF9FEF08952FB7D0
:10016000F8948091570190915801A0915901B09154
:100170005A012FBF8093630190936401A09365019E
:10018000B09366018BE591E00E949B0097FF26C02B
:100190002FB7F8948091570190915801A09159017F
:1001A000B0915A012FBF4091630150916401609159
:1001B000650170916601841B950BA60BB70B4091EE
:1001C0005F0150916001609161017091620184173B
:1001D0009507A607B707B0F28FEF9FEF0895FC01D0
:1001E000918D828D981731F0828DE80FF11D858DEC
:1001F00090E008958FEF9FEF0895FC01918D228D7F
:10020000892F90E0805C9F4F821B91098F73992703
:1002100008958BE591E00E94FD0021E0892B09F40F
:1002200020E0822F089580E090E0892B29F00E9441
:10023000090181110C9400000895FC01A48DA80F00
:10024000B92FB11DA35ABF4F2C91848D90E0019618
:100250008F739927848FA689B7892C93A089B18938
:100260008C91837080648C93938D848D981306C0D9
:100270000288F389E02D80818F7D80830895EF923D
:10028000FF920F931F93CF93DF93EC0181E0888F50
:100290009B8D8C8D98131AC0E889F989808185FF20
:1002A00015C09FB7F894EE89FF896083E889F989C2
:1002B00080818370806480839FBF81E090E0DF91C4
:1002C000CF911F910F91FF90EF900895F62E0B8D17
:1002D00010E00F5F1F4F0F731127E02E8C8D8E11D2
:1002E0000CC00FB607FCFACFE889F989808185FF39
:1002F000F5CFCE010E941D01F1CFEB8DEC0FFD2F4C
:10030000F11DE35AFF4FF0829FB7F8940B8FEA89F3
:10031000FB8980818062CFCFCF93DF93EC01888D02
:100320008823B9F0AA89BB89E889F9898C9185FD70
:1003300003C0808186FD0DC00FB607FCF7CF8C91FE
:1003400085FFF2CF808185FFEDCFCE010E941D0198
:10035000E9CFDF91CF9108953FB7F8948091530191
:1003600090915401A0915501B091560126B5A89BDA
:1003700005C02F3F19F00196A11DB11D3FBFBA2F37
:10038000A92F982F8827BC01CD01620F711D811DF7
:10039000911D42E0660F771F881F991F4A95D1F77C
:1003A0000895FC0101900020E9F73197AF01481B47
:1003B000590BBC018BE591E00C945F008F929F92EA
:1003C000AF92BF920F931F93CF93DF93CDB7DEB75A
:1003D000A1970FB6F894DEBF0FBECDBF19A2423071
:1003E00008F44AE08E010F5D1F4F842E912CB12C32
:1003F000A12CA50194010E94F504E62FB901CA01C0
:10040000EA30F4F4E05DD801EE938D01232B242B28
:10041000252B79F790E080E0109719F0CD010E942C
:10042000D101A1960FB6F894DEBF0FBECDBFDF910C
:10043000CF911F910F91BF90AF909F908F90089593
:10044000E95CE1CFCF92DF92EF92FF92CF93DF93FF
:100450006B017C016DE28BE591E00E943F01EC01B4
:1004600066277727CB016C197D098E099F094AE021
:100470000E94DE018C0F9D1FDF91CF91FF90EF90C6
:10048000DF90CF9008950F931F93CF93DF93EC01EC
:1004900088819981009759F02A813B812617370777
:1004A00030F081E0DF91CF911F910F9108958B0182
:1004B0006F5F7F4F0E944206009759F099838883AF
:1004C0001B830A832C813D81232B59F7FC01108269
:1004D000E8CF80E0E7CF1F920F920FB60F92112462
:1004E0002F933F934F935F936F937F938F939F933C
:1004F000AF93BF93EF93FF938BE591E00E941D01B3
:10050000FF91EF91BF91AF919F918F917F916F91EB
:100510005F914F913F912F910F900FBE0F901F90C1
:1005200018951F920F920FB60F9211242F938F934D
:100530009F93EF93FF93E0916B01F0916C018081A9
:10054000E0917101F091720182FD1BC09081809158
:1005500074018F5F8F7320917501821741F0E091D4
:100560007401F0E0E55AFE4F958F80937401FF917E
:10057000EF919F918F912F910F900FBE0F901F9031
:1005800018958081F4CF1F920F920FB60F9211240D
:100590002F933F938F939F93AF93BF938091570176
:1005A00090915801A0915901B0915A013091520196
:1005B00023E0230F2D3758F50196A11DB11D20937F
:1005C00052018093570190935801A0935901B09321
:1005D0005A018091530190915401A0915501B0911D
:1005E00056010196A11DB11D8093530190935401B2
:1005F000A0935501B0935601BF91AF919F918F91F8
:100600003F912F910F900FBE0F901F90189526E8E5
:10061000230F0296A11DB11DD2CFCF93DF93CDB78B
:10062000DEB728970FB6F894DEBF0FBECDBF789423
:1006300084B5826084BD84B5816084BD85B58260E7
:1006400085BD85B5816085BD80916E008160809398
:100650006E00109281008091810082608093810001
:100660008091810081608093810080918000816011
:10067000809380008091B10084608093B10080916C
:10068000B00081608093B00080917A008460809394
:100690007A0080917A00826080937A0080917A005B
:1006A000816080937A0080917A00806880937A00DC
:1006B0001092C100E0916B01F0916C0182E08083A7
:1006C000E0916701F09168011082E0916901F09179
:1006D0006A018FEC808310927301E0916F01F091B9
:1006E000700186E08083E0916D01F0916E01808160
:1006F00080618083E0916D01F0916E01808188605E
:100700008083E0916D01F0916E018081806880832B
:10071000E0916D01F0916E0180818F7D808390E08A
:10072000E92E90E0F92E8BE591E00E94FD0018166D
:1007300019060CF089C088E191E00E94D1011A826B
:1007400019821C821B821E821D8270E060E0CE0135
:1007500001960E94430229813A8181112BC0211503
:10076000310519F0C9010E94B9051A8219821E8249
:100770001D821C821B820E94AF0097FD23C08F83C5
:1007800018860D811E810F5F1F4FB801CE010196A3
:100790000E944302882379F329813A818D819E81C9
:1007A000BE01695F7F4F820F931F0E9408071E835F
:1007B0000D83E1CF1E821D826AE271E0C9010E94B1
:1007C0000807D9CFC980DA8060E070E0CB01C1149E
:1007D000D10419F0C6010E9482048B01C114D10416
:1007E00019F0C6010E94B905B801012E000C880B52
:1007F000990B97FF1AC00E94220288E291E00E94A2
:10080000D1018BE291E00E94D10161E070E010160D
:1008100011067CF4CB01809FB001819F700D909FE9
:10082000700D112401501109F2CF4AE00E94DE013F
:10083000E4CF072E000C880B990B4AE00E94DE01E2
:1008400088E291E00E94D1010E94AC014B015C0161
:1008500084EF482E55245394612C712C0E94AC01D6
:10086000681979098A099B09683E734081059105D9
:10087000A8F391E0491A51086108710828EE820E28
:1008800023E0921EA11CB11C4114510461047104A7
:1008900029F7E114F10409F446CF0E9409018823E5
:1008A00009F441CF0E9400003ECFEBE5F1E0138256
:1008B000128288EE93E0A0E0B0E084839583A68363
:1008C000B7838AE091E09183808385EC90E09587FF
:1008D000848784EC90E09787868780EC90E0918B0A
:1008E000808B81EC90E0938B828B82EC90E0958BF7
:1008F000848B86EC90E0978B868B118E128E138EF4
:10090000148E08951F93FC0199278827BC01E89451
:1009100011911032E9F3193010F01E30C8F31B3278
:1009200051F01D3249F4689406C00E94A904610F79
:10093000711D811D911D119110531A30B0F33EF4B9
:1009400090958095709561957F4F8F4F9F4F1F9128
:100950000895592F482F372F262F660F771F881F8E
:10096000991F660F771F881F991F620F731F841FBF
:10097000951F660F771F881F991F08952F923F922A
:100980004F925F926F927F928F929F92AF92BF929F
:10099000CF92DF92EF92FF920F931F93CF93DF934B
:1009A000CDB7DEB7CA1BDB0B0FB6F894DEBF0FBEA8
:1009B000CDBF09942A88398848885F846E847D84F5
:1009C0008C849B84AA84B984C884DF80EE80FD80F7
:1009D0000C811B81AA81B981CE0FD11D0FB6F8946D
:1009E000DEBF0FBECDBFED010895A1E21A2EAA1BF6
:1009F000BB1BFD010DC0AA1FBB1FEE1FFF1FA217CF
:100A0000B307E407F50720F0A21BB30BE40BF50BCB
:100A1000661F771F881F991F1A9469F76095709554
:100A2000809590959B01AC01BD01CF010895EE0F1B
:100A3000FF1F0590F491E02D09940F931F93CF931E
:100A4000DF938230910510F482E090E0E091FA01AA
:100A5000F091FB0130E020E0B0E0A0E0309799F4A5
:100A60002115310509F44AC0281B390B2430310502
:100A7000D8F58A819B816115710589F1FB0193830A
:100A80008283FE0111C04081518102811381481788
:100A90005907E0F04817590799F4109761F012963A
:100AA0000C93129713961C933296CF01DF91CF913E
:100AB0001F910F9108950093FA011093FB01F4CF59
:100AC0002115310551F04217530738F0A901DB0118
:100AD0009A01BD01DF01F801C1CFEF01F9CF909379
:100AE000FB018093FA01CDCFFE01E20FF31F81934A
:100AF00091932250310939832883D7CF2091F8016F
:100B00003091F901232B41F420910201309103012E
:100B10003093F9012093F8012091000130910101F7
:100B20002115310541F42DB73EB740910401509194
:100B30000501241B350BE091F801F091F901E21752
:100B4000F307A0F42E1B3F0B2817390778F0AC01F0
:100B50004E5F5F4F2417350748F04E0F5F1F5093CD
:100B6000F9014093F801819391939FCFF0E0E0E089
:100B70009CCFCF93DF930097E9F0FC01329713826B
:100B80001282A091FA01B091FB01ED0130E020E06A
:100B90001097A1F420813181820F931F2091F801D9
:100BA0003091F9012817390709F061C0F093F90174
:100BB000E093F801DF91CF910895EA01CE17DF07A6
:100BC000E8F54A815B819E0141155105B1F7E901C4
:100BD000FB83EA8349915991C40FD51FEC17FD0798
:100BE00061F4808191810296840F951FE9019983B8
:100BF0008883828193819B838A83F0E0E0E0129670
:100C00008D919C9113970097B9F52D913C91119777
:100C1000CD010296820F931F2091F8013091F901C6
:100C20002817390739F6309751F51092FB011092C9
:100C3000FA01B093F901A093F801BCCFD383C2832A
:100C400040815181840F951FC817D90761F44E5F09
:100C50005F4F88819981480F591F518340838A8152
:100C60009B81938382832115310509F0B0CFF093E6
:100C7000FB01E093FA019ECFFD01DC01C0CF13829E
:100C80001282D7CFB0E0A0E0E8E4F6E00C94C00414
:100C90008C01009751F4CB010E941D058C01C80105
:100CA000CDB7DEB7E0E10C94DC04FC01E60FF71FE2
:100CB0009C0122503109E217F30708F49DC0D901C5
:100CC000CD91DC911197C617D70798F0C530D105A3
:100CD00030F3CE0104978617970708F3C61BD70B8E
:100CE0002297C193D1936D937C93CF010E94B90554
:100CF000D6CF5B01AC1ABD0A4C018C0E9D1EA09193
:100D0000FA01B091FB01512C412CF12CE12C1097F0
:100D100031F58091F8019091F9018815990509F054
:100D20005CC04616570608F058C0809100019091AB
:100D30000101009741F48DB79EB740910401509195
:100D40000501841B950BE817F90708F055C0F093CF
:100D5000F901E093F801F90171836083A0CF8D91CF
:100D60009C91119712966C90129713967C90139702
:100D7000A815B90559F56C0142E0C40ED11CCA147E
:100D8000DB0420F1AC014A195B09DA0112961597D0
:100D900080F06282738251834083D9016D937C938A
:100DA000E114F10471F0D7011396FC93EE931297BE
:100DB00076CF22968C0F9D1FF90191838083F301DA
:100DC000EFCFF093FB01E093FA0169CF4816590683
:100DD00008F42C017D01D3019ACFCB010E941D059F
:100DE0007C01009749F0AE01B8010E94FF06C801DE
:100DF0000E94B905870153CF10E000E050CFFB01FE
:100E0000DC0102C001900D9241505040D8F7089586
:100E1000FB01DC0101900D920020E1F70895F894A8
:020E2000FFCF02
:100E22000000FC018000000000003F015F008C0018
:100E32008C01FD009B00EF005573657220496E70B6
:100E42007574206973203A000D0A005265706C793E
:100E52002066726F6D2061726475696E6F203A2030
:100E6200466163746F7269616C20206973203A2055
:020E720000007E
:00000001FF
