:100000000C945D000C9485000C9485000C94850084
:100010000C9485000C9485000C9485000C9485004C
:100020000C9485000C9485000C9485000C9485003C
:100030000C9485000C9485000C9485000C9485002C
:100040000C9474020C9485000C9442020C941C02D3
:100050000C9485000C9485000C9485000C9485000C
:100060000C9485000C9485000000000024002700FB
:100070002A0000000000250028002B0004040404CE
:100080000404040402020202020203030303030342
:10009000010204081020408001020408102001021F
:1000A00004081020000000080002010000030407FB
:1000B0000000000000000000100411241FBECFEF5C
:1000C000D8E0DEBFCDBF11E0A0E0B1E0EEECF8E09B
:1000D00002C005900D92A438B107D9F722E0A4E838
:1000E000B1E001C01D92AA32B207E1F710E0CDE500
:1000F000D0E004C02197FE010E945F04CC35D107F7
:10010000C9F70E94BE020C9465040C940000EEEA4C
:10011000F0E02491EAE9F0E09491E6E8F0E0E4917F
:10012000EE23C9F0222339F0233001F1A8F4213065
:1001300019F1223029F1F0E0EE0FFF1FEE58FF4FCA
:10014000A591B4912FB7F894EC91811126C09095A8
:100150009E239C932FBF08952730A9F02830C9F023
:10016000243049F7209180002F7D03C0209180002A
:100170002F7720938000DFCF24B52F7724BDDBCFEE
:1001800024B52F7DFBCF2091B0002F772093B000B6
:10019000D2CF2091B0002F7DF9CF9E2BDACFAF9236
:1001A000BF92CF92DF92EF92FF920F931F93CF9364
:1001B000DF936C017B018B01040F151FEB015E01C6
:1001C000AE18BF08C017D10759F06991D601ED915B
:1001D000FC910190F081E02DC6010995892B79F7FA
:1001E000C501DF91CF911F910F91FF90EF90DF90AC
:1001F000CF90BF90AF900895FC01538D448D252F73
:1002000030E0842F90E0821B930B541710F0CF96B0
:10021000089501970895FC01918D828D981761F0E2
:10022000A28DAE0FBF2FB11D5D968C91928D9F5FF9
:100230009F73928F90E008958FEF9FEF0895FC01D8
:10024000918D828D981731F0828DE80FF11D858D8B
:1002500090E008958FEF9FEF0895FC01918D228D1E
:10026000892F90E0805C9F4F821B91098F739927A3
:1002700008958DE891E00E942D0121E0892B09F479
:1002800020E0822F089580E090E0892B29F00E94E1
:10029000390181110C9400000895FC01A48DA80F70
:1002A000B92FB11DA35ABF4F2C91848D90E00196B8
:1002B0008F739927848FA689B7892C93A089B189D8
:1002C0008C91837080648C93938D848D981306C079
:1002D0000288F389E02D80818F7D80830895EF92DD
:1002E000FF920F931F93CF93DF93EC0181E0888FF0
:1002F0009B8D8C8D98131AC0E889F989808185FFC0
:1003000015C09FB7F894EE89FF896083E889F98961
:1003100080818370806480839FBF81E090E0DF9163
:10032000CF911F910F91FF90EF900895F62E0B8DB6
:1003300010E00F5F1F4F0F731127E02E8C8D8E1171
:100340000CC00FB607FCFACFE889F989808185FFD8
:10035000F5CFCE010E944D01F1CFEB8DEC0FFD2FBB
:10036000F11DE35AFF4FF0829FB7F8940B8FEA8993
:10037000FB8980818062CFCFCF93DF93EC01888DA2
:100380008823B9F0AA89BB89E889F9898C9185FD10
:1003900003C0808186FD0DC00FB607FCF7CF8C919E
:1003A00085FFF2CF808185FFEDCFCE010E944D0108
:1003B000E9CFDF91CF9108953FB7F89480918901FB
:1003C00090918A01A0918B01B0918C0126B5A89BD8
:1003D00005C02F3F19F00196A11DB11D3FBFBA2FD7
:1003E000A92F982F8827BC01CD01620F711D811D97
:1003F000911D42E0660F771F881F991F4A95D1F71C
:100400000895FC0101900020E9F73197AF01481BE6
:10041000590BBC018DE891E00C94CF00CF93DF9392
:100420000E940102EC0184E191E00E9401028C0F24
:100430009D1FDF91CF9108951F920F920FB60F92DB
:1004400011242F933F934F935F936F937F938F93D9
:100450009F93AF93BF93EF93FF938DE891E00E943A
:100460004D01FF91EF91BF91AF919F918F917F913E
:100470006F915F914F913F912F910F900FBE0F9011
:100480001F9018951F920F920FB60F9211242F9361
:100490008F939F93EF93FF93E0919D01F0919E01C5
:1004A0008081E091A301F091A40182FD1BC09081A5
:1004B0008091A6018F5F8F732091A701821741F071
:1004C000E091A601F0E0E357FE4F958F8093A601DF
:1004D000FF91EF919F918F912F910F900FBE0F90F1
:1004E0001F9018958081F4CF1F920F920FB60F9234
:1004F00011242F933F938F939F93AF93BF9380913A
:10050000850190918601A0918701B0918801309179
:10051000840123E0230F2D3758F50196A11DB11D4D
:10052000209384018093850190938601A093870195
:10053000B09388018091890190918A01A0918B01EB
:10054000B0918C010196A11DB11D809389019093FA
:100550008A01A0938B01B0938C01BF91AF919F91C1
:100560008F913F912F910F900FBE0F901F90189574
:1005700026E8230F0296A11DB11DD2CFCF93DF93A2
:10058000CDB7DEB7A1970FB6F894DEBF0FBECDBFD3
:10059000789484B5826084BD84B5816084BD85B55E
:1005A000826085BD85B5816085BD80916E0081606A
:1005B00080936E0010928100809181008260809310
:1005C0008100809181008160809381008091800012
:1005D0008160809380008091B10084608093B1003D
:1005E0008091B00081608093B00080917A00846037
:1005F00080937A0080917A00826080937A00809163
:100600007A00816080937A0080917A00806880937C
:100610007A001092C100E0919D01F0919E0182E06C
:100620008083E0919901F0919A011082E0919B0101
:10063000F0919C018FEC80831092A501E091A101C3
:10064000F091A20186E08083E0919F01F091A001EA
:10065000808180618083E0919F01F091A001808181
:1006600088608083E0919F01F091A0018081806883
:100670008083E0919F01F091A00180818F7D808334
:10068000EAE9F0E02491E6E8F0E08491882399F02B
:1006900090E0880F991FFC01E859FF4FA591B49194
:1006A000FC01EE58FF4F859194918FB7F894EC912F
:1006B000E22BEC938FBF92E4392E2AE0822E912C0C
:1006C000A12CB12C30927C0080917A0080648093C0
:1006D0007A0080917A0086FDFCCF809178000091AD
:1006E0007900102F082F87E191E00E940102680134
:1006F000012E000CEE08FF0817FF73C06DE28DE8B5
:1007000091E00E946F0122273327A9012C193D098E
:100710004E095F0919A2CE0181967C01CA01B90177
:10072000A50194010E943D04605DF70162937F0181
:10073000211531054105510589F7E114F10419F03E
:10074000C7010E94010284E191E00E94010281E060
:100750000130F2E01F070CF480E00E9487008091D6
:10076000000190910101801791070CF050C084E3C3
:1007700091E00E940E0210930101009300010E947B
:10078000DC016B017C0188EE482E83E0582E612C41
:10079000712C0E94DC016C197D098E099F09683E4D
:1007A000734081059105A8F321E0421A51086108C0
:1007B000710888EEC80E83E0D81EE11CF11C4114BC
:1007C00051046104710429F780E090E0892B09F459
:1007D00079CF0E943901882309F474CF0E94000068
:1007E00071CFA701960119A2CE0181967C01CA01A1
:1007F000B901A50194010E943D04605DF701629377
:100800007F01211531054105510589F796CF08175C
:1008100019071CF48BE491E0ACCF84E691E0A9CFFA
:10082000EDE8F1E01382128288EE93E0A0E0B0E000
:1008300084839583A683B78386E091E09183808348
:1008400085EC90E09587848784EC90E09787868795
:1008500080EC90E0918B808B81EC90E0938B828B8D
:1008600082EC90E0958B848B86EC90E0978B868B66
:10087000118E128E138E148E0895A1E21A2EAA1BC9
:10088000BB1BFD010DC0AA1FBB1FEE1FFF1FA21740
:10089000B307E407F50720F0A21BB30BE40BF50B3D
:1008A000661F771F881F991F1A9469F760957095C6
:1008B000809590959B01AC01BD01CF010895EE0F8D
:0E08C000FF1F0590F491E02D0994F894FFCFEE
:1008CE00FF03000000006F01CF00FC00BC012D01F2
:1008DE000B011F010D0A004C44522073656E736F9D
:1008EE0072207265616420284469676974616C299D
:1008FE00203A2000497427732067657474696E6707
:10090E00206461726B657221212100497427732066
:10091E0067657474696E6720627269676874657260
:10092E00212121004E6F206368616E676520696E1C
:10093E0020746865206272696768746E65737321CE
:04094E002121000063
:00000001FF
