:0E0000000C942A000C9400000C9400000C9448
:10000E0000000C9400000C9400000C9400000C9462
:10001E0000000C9400000C9400000C9400000C9452
:10002E0000000C9400000C9400000C9400000C9442
:10003E0000000C9400000C9400000C9400000C9432
:10004E0000000C940000F894EE27ECBBF1E0FBBF2F
:10005E00EBBFE5BFF8E1F1BDE1BD8DE0A2E0BB274E
:10006E00ED938A95E9F780E098E0A0E6ED9301978D
:10007E00E9F7EFE5EDBFE8E0EEBFC0E6D2E00C94A5
:10008E0048000EE511E0EFEFEABBE7BBEEEFE8BB91
:10009E00E0E0E5BBE4BBE2BBE1BBE3BFE2BFECBF2C
:1000AE00EFBDEEBDEDBDECBDE7BDE6BDEBBDEABD02
:1000BE00E9BDE8BDE2BDE5BDE4BDE3BDE5BFE4BF1E
:1000CE00E9BFEAB9E0E8E8B9E0E0E0BFE6B9EDB9CA
:1000DE00E6BFE6E814D0EBED12D0EFEC10D0E6EE72
:1000EE000ED0EDEE0CD0EDEF0AD0E7E808D0EFEF32
:1000FE0006D0EFEE04D0EFEB02D0EBCFFFCFEBBB91
:10010E001A930A930C948B00E991F991309639F079
:10011E0080ED97E00197F1F7A8953197C9F708950B
:00000001FF
