:020000000C945E
:100002003C000C9400000C9400000C9400000C9432
:1000120000000C9400000C9400000C9400000C945E
:1000220000000C9400000C9400000C9400000C944E
:1000320000000C9400000C9400000C9400000C943E
:1000420000000C9400000C9400000C9400000C942E
:1000520000003F008600DB00CF00E600ED00FD005F
:100062008700FF00EF0001000200040008001000FA
:10007200200040008000F894EE27ECBBF1E0FBBFCB
:10008200EBBFE5BFF8E1F1BDE1BD8DE0A2E0BB272A
:10009200ED938A95E9F780E098E0A0E6ED93019769
:1000A200E9F7EFE5EDBFE8E0EEBFC0E6D2E00C9481
:1000B2005A00A49784E2A0E0B0E0E4E5F0E00E94F8
:1000C200CA0000E010E020E030E0EFEFEABBE0E041
:1000D200E7BBEFEFE4BBE1BBE0E0E3BFE2BFECBFB5
:1000E200EFBDEEBDEDBDECBDE7BDE6BDEBBDEABDCE
:1000F200E9BDE8BDE2BDE5BDE4BDE3BDE5BFE4BFEA
:10010200E9BFEAB9E0E8E8B9E0E0E0BFE6B9EDB995
:10011200E6BFB09AE0E0E2BBB0991FC00330E0E076
:100122001E07DCF4F8010F5F1F4FDE015496EE0F3D
:10013200FF1FAE0FBF1FEC91EBBBF9012F5F3F4FCB
:10014200DE01EE0FFF1FAE0FBF1FEC91E5BBE4EF28
:10015200F1E0FA93EA930E94BE00E3E0F0E0E017D8
:10016200F10711F400E010E0EAE0F0E0E217F30733
:1001720011F420E030E0CDCFFFCFE991F991309634
:1001820039F080ED97E00197F1F7A8953197C9F71B
:100192000895AC0FBD1F05900D928A95E1F7089561
:00000001FF
