:0E0000000C9434000C9400000C9400000C943E
:10000E0000000C9400000C9400000C9400000C9462
:10001E0000000C9400000C9400000C9400000C9452
:10002E0000000C9400000C9400000C9400000C9442
:10003E0000000C9400000C9400000C9400000C9432
:10004E0000000C9400003F00060007007F00000037
:10005E0000000000000000000000F894EE27ECBB4A
:10006E00F1E0FBBFEBBFE5BFF8E1F1BDE1BD8DE017
:10007E00A2E0BB27ED938A95E9F780E098E0A0E631
:10008E00ED930197E9F7EFE5EDBFE8E0EEBFC0E6CF
:10009E00D2E00C945200649784E1A0E0B0E0E4E575
:1000AE00F0E00E94B80000E010E020E030E0EFEF5A
:1000BE00EABBE7BBE0E0E5BBE4BBE2BBE1BBE3BF11
:1000CE00E2BFECBFEFBDEEBDEDBDECBDE7BDE6BDE5
:1000DE00EBBDEABDE9BDE8BDE2BDE5BDE4BDE3BDF6
:1000EE00E5BFE4BFE9BFEAB9E0E8E8B9E0E0E0BFA8
:1000FE00E6B9EDB9E6BF00E010E00730E0E01E071C
:10010E0064F4EEEFE8BBF90113D0EDEFE8BBF901B3
:10011E0031960ED00F5F1F4FF0CF2F5F3F4FE4E0B1
:10012E00F0E0E217F30711F420E030E0E4CFFFCF68
:10013E00DE01EE0FFF1FAE0FBF1FEC91EBBBE2E334
:10014E00F0E0FA93EA930C94AC00E991F9913096B1
:10015E0039F080ED97E00197F1F7A8953197C9F73F
:10016E000895AC0FBD1F05900D928A95E1F7089585
:00000001FF
