:0C0000000C9432000C9400000C940000E2
:10000C000C9400000C9400000C9400000C94000064
:10001C000C9400000C9400000C9400000C94000054
:10002C000C9400000C9400000C9400000C94000044
:10003C000C9400000C9400000C9400000C94000034
:10004C000C9400000C940000010002000400080055
:10005C001000200040008000F894EE27ECBBF1E08B
:10006C00FBBFEBBFE5BFF8E1F1BDE1BD8DE0A2E068
:10007C00BB27ED938A95E9F780E098E0A0E6ED9335
:10008C000197E9F7EFE5EDBFE8E0EEBFC0E6D2E09F
:10009C000C945000609780E1A0E0B0E0E4E5F0E063
:1000AC000E94A70000E010E0EFEFEABBE0E0E7BB46
:1000BC00E8BBE5BBE4BBE2BBE1BBE3BFE2BFECBF2B
:1000CC00EFBDEEBDEDBDECBDE7BDE6BDEBBDEABDE4
:1000DC00E9BDE8BDE2BDE5BDE4BDE3BDE5BFE4BF00
:1000EC00E9BFEAB9E0E8E8B9E0E0E0BFE6B9EDB9AC
:1000FC00E6BFB09AB09917C00830E0E01E078CF448
:10010C00F8010F5F1F4FDE01EE0FFF1FAE0FBF1F79
:10011C00EC91EBBBE4EFF1E0FA93EA930E949B00C5
:10012C0002C000E010E0E5CFFFCFE991F9913096E5
:10013C0039F080ED97E00197F1F7A8953197C9F761
:10014C000895AC0FBD1F05900D928A95E1F70895A7
:00000001FF
