:020000000C945E
:100002002A000C9400000C9400000C9400000C9444
:1000120000000C9400000C9400000C9400000C945E
:1000220000000C9400000C9400000C9400000C944E
:1000320000000C9400000C9400000C9400000C943E
:1000420000000C9400000C9400000C9400000C942E
:100052000000F894EE27ECBBF1E0FBBFEBBFE5BF7D
:10006200F8E1F1BDE1BD8DE0A2E0BB27ED938A95F9
:10007200E9F780E098E0A0E6ED930197E9F7EFE574
:10008200EDBFE8E0EEBFC0E6D2E00C944800EFEF2F
:10009200EABBE7BBE0E0E5BBE4BBE2BBE1BBE3BF3D
:1000A200E2BFECBFEFBDEEBDEDBDECBDE7BDE6BD11
:1000B200EBBDEABDE9BDE8BDE2BDE5BDE4BDE3BD22
:1000C200E5BFE4BFE9BFEAB9E0E8E8B9E0E0E0BFD4
:1000D200E6B9EDB9E6BFEEEFE8BBE6E006D0EDEF3C
:1000E200E8BBE6E602D0F7CFFFCFEBBBE4E1F0E0FE
:1000F200FA93EA930C947D00E991F991309639F0E4
:1001020080ED97E00197F1F7A8953197C9F7089527
:00000001FF
