:060000000C9443000C9477
:1000060000000C9400000C9400000C9400000C946A
:1000160000000C9400000C9400000C9400000C945A
:1000260000000C9400000C9400000C9400000C944A
:1000360000000C9400000C9400000C9400000C943A
:1000460000000C9400000C9400000C940000102793
:10005600E80364000A00010000100001100001001E
:100066004E65774D61726B65740080C00A00600250
:1000760066000A006A026600020074027000000050
:10008600F894EE27ECBBF1E0FBBFEBBFE5BFF8E170
:10009600F1BDE1BD8DE0A2E0BB27ED938A95E9F7BE
:1000A60080E098E0A0E6ED930197E9F7E2E7F0E05B
:1000B60085919591009761F0A591B5910590159060
:1000C600BF01F00105900D920197E1F7FB01F0CF1A
:1000D600EFE5EDBFE8E0EEBFC0E6D2E00C947300BA
:1000E60000E010E0E0E0EBBBEABBE8BBE7BBE5BB4A
:1000F600E4BBE2BBE1BBE3BFE2BFECBFEFBDEEBDDD
:10010600EDBDECBDE7BDE6BDEBBDEABDE9BDE8BDB5
:10011600E2BDE5BDE4BDE3BDE5BFE4BFE9BFEAB9C5
:10012600E0E8E8B9E0E0E0BFE6B9EDB9E6BFE0E156
:10013600EA9397D000E010E00730E0E01E075CF499
:100146000A93E0E0EA934FD0E0E6F2E00E9469010C
:100156000F5F1F4FF1CF00E010E00730E0E01E0711
:100166007CF4E7E0F0E0E01BF10BEA93E0E0EA93D1
:100176003AD0EAE6F2E00E9469010F5F1F4FEDCF29
:10018600D9CFFFCFE881E07111F0C49A01C0C498BD
:10019600E881E07211F0C59A01C0C598E881E07463
:1001A60011F0C69A01C0C698E881E07811F0C79AA6
:1001B60001C0C79885E08A95F1F7C29A8DE08A95C5
:1001C600F1F7C2988DE08A95F1F77EC0E881EA934F
:1001D600D9DFE881E295E883E881EA93D3DF85E811
:1001E6008A95F1F771C0E881F0E0EC58FD4FE081A7
:1001F600A981EA0FEA93EADF59804880229608959A
:10020600E2E00E947501ECE0EA93E0DFE1E00E94A3
:100216007501E0E04E2E5E2E0895A881AA3011F0F9
:10022600571448F0E0E0EA9343944A92DCDFA88151
:10023600AA3009F449C05394C09AE881EA93C6DF0C
:10024600C09842C01A93A981BA81ED91A983BA8355
:100256001E2FE03019F01A93E0DFF5CF18812396B0
:100266000895BC9ABD9ABE9ABF9ABA9AB89AB99A94
:10027600C298C098C1987880E881E058E0937602E9
:10028600E881E054E0937702E4E1F0E0FA93EA9340
:100296000E9487010E947E010E947E010E947E01CB
:1002A600E0E2EA936FDF88EC90E00197F1F7E8E28D
:1002B600EA938CDFE4E0EA9389DFE5E8EA9386DFF8
:1002C600E6E0EA9383DF9CDF21960895FA93EA93AA
:1002D6000E942501ECE2F1E0FA93EA930E9487017D
:1002E6000C940301EA930E94E900E3E0F0E0FA933C
:1002F600EA930C948701E0E3EA930E94C50088EC38
:1003060090E00197F1F70895E991F991309639F067
:1003160080ED97E00197F1F7A8953197C9F7089511
:00000001FF
