:0E0000000C9441000C9400000C9400000C9431
:10000E0000000C9400000C9400000C9400000C9462
:10001E0000000C9400000C9400000C9400000C9452
:10002E0000000C9400000C9400000C9400000C9442
:10003E0000000C9400000C9400000C9400000C9432
:10004E0000000C9400003F008600DB00CF00E600AD
:10005E00ED00FD008700FF00EF000100020004002C
:10006E000800100020004000800080C002006002E6
:10007E0078000000F894EE27ECBBF1E0FBBFEBBF7D
:10008E00E5BFF8E1F1BDE1BD8DE0A2E0BB27ED9348
:10009E008A95E9F780E098E0A0E6ED930197E9F7FD
:1000AE00EAE7F0E085919591009761F0A591B59101
:1000BE0005901590BF01F00105900D920197E1F7A3
:1000CE00FB01F0CFEFE5EDBFE8E0EEBFC0E6D2E01A
:1000DE000C947100A49784E2A0E0B0E0E4E5F0E0B7
:1000EE000E94600100E010E020E030E040E050E0CF
:1000FE00EFE7EABBE0E0E7BBEFEFE4BBE3E0E1BB39
:10010E00E0E0E3BFE2BFECBFEFBDEEBDEDBDECBD89
:10011E00E7BDE6BDEBBDEABDE9BDE8BDE2BDE5BDAF
:10012E00E4BDE3BDE5BFE4BFE9BFEAB9E0E8E8B985
:10013E00E0E0E0BFE6B9EDB9E6BFE0E1EA936DD0ED
:10014E00CF9AE0E0E2BBCF991CC00330E0E01E077F
:10015E00C4F4F8010F5F1F4FDE015496EE0FFF1F20
:10016E00AE0FBF1FEC91EBBBF9012F5F3F4FDE01CE
:10017E00EE0FFF1FAE0FBF1FEC91E5BBE4EFF1E0FA
:10018E007BD0E3E0F0E0E017F10711F400E010E0BF
:10019E00EAE0F0E0E217F30711F420E030E0D0CF10
:1001AE00FFCFE881E07111F0C49A01C0C498E881D4
:1001BE00E07211F0C59A01C0C598E881E07411F0A3
:1001CE00C69A01C0C698E881E07811F0C79A01C0BE
:1001DE00C79885E08A95F1F7C29A8DE08A95F1F776
:1001EE00C2988DE08A95F1F745C0E881EA93D9DF90
:1001FE00E881E295E883E881EA93D3DF85E88A9582
:10020E00F1F738C0E2E03CD0ECE0EA93EEDFE1E05B
:10021E0037D0E0E04E2E5E2E0895BC9ABD9ABE9A5F
:10022E00BF9ABA9AB89AB99AC298C098C19878806B
:10023E00E881E058E0936202E881E054E0936302C3
:10024E00E4E1F0E019D021D020D01FD0E0E2EA9313
:10025E00A8DF88EC90E00197F1F7E8E2EA93C5DFBA
:10026E00E4E0EA93C2DFE5E8EA93BFDFE6E0EA9373
:10027E00BCDFC8DF21960895FA93EA930C945401DB
:10028E00EA93B3DFE3E0F0E0F7CFE0E3EA9389DF50
:10029E0088EC90E00197F1F70895E991F991309685
:1002AE0039F080ED97E00197F1F7A8953197C9F7EE
:1002BE000895AC0FBD1F05900D928A95E1F7089534
:00000001FF
