:0E0000000C942A000C9400000C9400000C9448
:10000E0000000C9400000C9400000C9400000C9462
:10001E0000000C9400000C9400000C9400000C9452
:10002E0000000C9400000C9400000C9400000C9442
:10003E0000000C9400000C9400000C9400000C9432
:10004E0000000C940000F894EE27ECBBF1E0FBBF2F
:10005E00EBBFE5BFF8E1F1BDE1BD8DE0A2E0BB274E
:10006E00ED938A95E9F780E098E0A0E6ED9301978D
:10007E00E9F7EFE5EDBFE8E0EEBFC0E6D2E00C94A5
:10008E004800E0E0EABBE7BBEFEFE4BBE1BBE0E03A
:10009E00E3BFE2BFECBFEFBDEEBDEDBDECBDE7BD16
:1000AE00E6BDEBBDEABDE9BDE8BDE2BDE5BDE4BD23
:1000BE00E3BDE5BFE4BFE9BFEAB9E0E8E8B9E0E0D7
:1000CE00E0BFE6B9EDB9E6BFB39909C0E1E0E5BB23
:1000DE00E2E0E5BBE4E0E5BBE8E0E5BB0BC0E0E059
:1000EE00E5BBE5BBE5BBE5BBE2E3F0E0FA93EA93E3
:1000FE000E948300E9CFFFCFE991F991309639F054
:10010E0080ED97E00197F1F7A8953197C9F708951B
:00000001FF
